{
  "_format": "hh-sol-artifact-1",
  "contractName": "Token",
  "sourceName": "contracts/Token.sol",
  "abi": [
    {
      "inputs": [],
      "stateMutability": "nonpayable",
      "type": "constructor"
    },
    {
      "anonymous": false,
      "inputs": [
        {
          "indexed": false,
          "internalType": "address",
          "name": "from",
          "type": "address"
        },
        {
          "indexed": false,
          "internalType": "uint256",
          "name": "numberOfTokens",
          "type": "uint256"
        },
        {
          "indexed": false,
          "internalType": "uint256",
          "name": "amount",
          "type": "uint256"
        }
      ],
      "name": "TokenPurchase",
      "type": "event"
    },
    {
      "anonymous": false,
      "inputs": [
        {
          "indexed": false,
          "internalType": "address",
          "name": "from",
          "type": "address"
        },
        {
          "indexed": false,
          "internalType": "address",
          "name": "to",
          "type": "address"
        },
        {
          "indexed": false,
          "internalType": "uint256",
          "name": "amount",
          "type": "uint256"
        }
      ],
      "name": "Transfer",
      "type": "event"
    },
    {
      "inputs": [
        {
          "internalType": "address",
          "name": "account",
          "type": "address"
        }
      ],
      "name": "balanceOf",
      "outputs": [
        {
          "internalType": "uint256",
          "name": "",
          "type": "uint256"
        }
      ],
      "stateMutability": "view",
      "type": "function"
    },
    {
      "inputs": [
        {
          "internalType": "uint256",
          "name": "numberOfTokens",
          "type": "uint256"
        }
      ],
      "name": "buyTokens",
      "outputs": [],
      "stateMutability": "payable",
      "type": "function"
    },
    {
      "inputs": [],
      "name": "name",
      "outputs": [
        {
          "internalType": "string",
          "name": "",
          "type": "string"
        }
      ],
      "stateMutability": "view",
      "type": "function"
    },
    {
      "inputs": [],
      "name": "owner",
      "outputs": [
        {
          "internalType": "address",
          "name": "",
          "type": "address"
        }
      ],
      "stateMutability": "view",
      "type": "function"
    },
    {
      "inputs": [],
      "name": "symbol",
      "outputs": [
        {
          "internalType": "string",
          "name": "",
          "type": "string"
        }
      ],
      "stateMutability": "view",
      "type": "function"
    },
    {
      "inputs": [],
      "name": "totalSupply",
      "outputs": [
        {
          "internalType": "uint256",
          "name": "",
          "type": "uint256"
        }
      ],
      "stateMutability": "view",
      "type": "function"
    },
    {
      "inputs": [
        {
          "internalType": "address",
          "name": "to",
          "type": "address"
        },
        {
          "internalType": "uint256",
          "name": "amount",
          "type": "uint256"
        }
      ],
      "name": "transfer",
      "outputs": [],
      "stateMutability": "nonpayable",
      "type": "function"
    }
  ],
  "bytecode": "0x60806040526040518060400160405280601081526020017f4d79204861726468617420546f6b656e0000000000000000000000000000000081525060009080519060200190620000519291906200014e565b506040518060400160405280600381526020017f4d48540000000000000000000000000000000000000000000000000000000000815250600190805190602001906200009f9291906200014e565b50620f4240600255670de0b6b3a7640000600555348015620000c057600080fd5b50600254600460003373ffffffffffffffffffffffffffffffffffffffff1673ffffffffffffffffffffffffffffffffffffffff1681526020019081526020016000208190555033600360006101000a81548173ffffffffffffffffffffffffffffffffffffffff021916908373ffffffffffffffffffffffffffffffffffffffff16021790555062000263565b8280546200015c90620001fe565b90600052602060002090601f016020900481019282620001805760008555620001cc565b82601f106200019b57805160ff1916838001178555620001cc565b82800160010185558215620001cc579182015b82811115620001cb578251825591602001919060010190620001ae565b5b509050620001db9190620001df565b5090565b5b80821115620001fa576000816000905550600101620001e0565b5090565b600060028204905060018216806200021757607f821691505b602082108114156200022e576200022d62000234565b5b50919050565b7f4e487b7100000000000000000000000000000000000000000000000000000000600052602260045260246000fd5b610f6680620002736000396000f3fe6080604052600436106100705760003560e01c806370a082311161004e57806370a08231146100e75780638da5cb5b1461012457806395d89b411461014f578063a9059cbb1461017a57610070565b806306fdde031461007557806318160ddd146100a05780633610724e146100cb575b600080fd5b34801561008157600080fd5b5061008a6101a3565b6040516100979190610be5565b60405180910390f35b3480156100ac57600080fd5b506100b5610231565b6040516100c29190610cd7565b60405180910390f35b6100e560048036038101906100e09190610976565b610237565b005b3480156100f357600080fd5b5061010e60048036038101906101099190610911565b610575565b60405161011b9190610cd7565b60405180910390f35b34801561013057600080fd5b506101396105be565b6040516101469190610b5c565b60405180910390f35b34801561015b57600080fd5b506101646105e4565b6040516101719190610be5565b60405180910390f35b34801561018657600080fd5b506101a1600480360381019061019c919061093a565b610672565b005b600080546101b090610e61565b80601f01602080910402602001604051908101604052809291908181526020018280546101dc90610e61565b80156102295780601f106101fe57610100808354040283529160200191610229565b820191906000526020600020905b81548152906001019060200180831161020c57829003601f168201915b505050505081565b60025481565b6102766040518060400160405280600981526020017f56616c75653a202573000000000000000000000000000000000000000000000081525034610822565b600360009054906101000a900473ffffffffffffffffffffffffffffffffffffffff1673ffffffffffffffffffffffffffffffffffffffff163373ffffffffffffffffffffffffffffffffffffffff161415610307576040517f08c379a00000000000000000000000000000000000000000000000000000000081526004016102fe90610c77565b60405180910390fd5b8060046000600360009054906101000a900473ffffffffffffffffffffffffffffffffffffffff1673ffffffffffffffffffffffffffffffffffffffff1673ffffffffffffffffffffffffffffffffffffffff1681526020019081526020016000205410156103ab576040517f08c379a00000000000000000000000000000000000000000000000000000000081526004016103a290610c37565b60405180910390fd5b6000600554826103bb9190610d64565b90508034146103ff576040517f08c379a00000000000000000000000000000000000000000000000000000000081526004016103f690610c97565b60405180910390fd5b8160046000600360009054906101000a900473ffffffffffffffffffffffffffffffffffffffff1673ffffffffffffffffffffffffffffffffffffffff1673ffffffffffffffffffffffffffffffffffffffff16815260200190815260200160002060008282546104709190610dbe565b9250508190555081600460003373ffffffffffffffffffffffffffffffffffffffff1673ffffffffffffffffffffffffffffffffffffffff16815260200190815260200160002060008282546104c69190610d0e565b92505081905550600360009054906101000a900473ffffffffffffffffffffffffffffffffffffffff1673ffffffffffffffffffffffffffffffffffffffff166108fc349081150290604051600060405180830381858888f19350505050158015610535573d6000803e3d6000fd5b507fcd60aa75dea3072fbc07ae6d7d856b5dc5f4eee88854f5b4abf7b680ef8bc50f33838360405161056993929190610bae565b60405180910390a15050565b6000600460008373ffffffffffffffffffffffffffffffffffffffff1673ffffffffffffffffffffffffffffffffffffffff168152602001908152602001600020549050919050565b600360009054906101000a900473ffffffffffffffffffffffffffffffffffffffff1681565b600180546105f190610e61565b80601f016020809104026020016040519081016040528092919081815260200182805461061d90610e61565b801561066a5780601f1061063f5761010080835404028352916020019161066a565b820191906000526020600020905b81548152906001019060200180831161064d57829003601f168201915b505050505081565b80600460003373ffffffffffffffffffffffffffffffffffffffff1673ffffffffffffffffffffffffffffffffffffffff1681526020019081526020016000205410156106f4576040517f08c379a00000000000000000000000000000000000000000000000000000000081526004016106eb90610cb7565b60405180910390fd5b60008111610737576040517f08c379a000000000000000000000000000000000000000000000000000000000815260040161072e90610c57565b60405180910390fd5b80600460003373ffffffffffffffffffffffffffffffffffffffff1673ffffffffffffffffffffffffffffffffffffffff16815260200190815260200160002060008282546107869190610dbe565b9250508190555080600460008473ffffffffffffffffffffffffffffffffffffffff1673ffffffffffffffffffffffffffffffffffffffff16815260200190815260200160002060008282546107dc9190610d0e565b925050819055507fddf252ad1be2c89b69c2b068fc378daa952ba7f163c4a11628f55a4df523b3ef33838360405161081693929190610b77565b60405180910390a15050565b6108ba8282604051602401610838929190610c07565b6040516020818303038152906040527f9710a9d0000000000000000000000000000000000000000000000000000000007bffffffffffffffffffffffffffffffffffffffffffffffffffffffff19166020820180517bffffffffffffffffffffffffffffffffffffffffffffffffffffffff83818316178352505050506108be565b5050565b60008151905060006a636f6e736f6c652e6c6f679050602083016000808483855afa5050505050565b6000813590506108f681610f02565b92915050565b60008135905061090b81610f19565b92915050565b60006020828403121561092357600080fd5b6000610931848285016108e7565b91505092915050565b6000806040838503121561094d57600080fd5b600061095b858286016108e7565b925050602061096c858286016108fc565b9150509250929050565b60006020828403121561098857600080fd5b6000610996848285016108fc565b91505092915050565b6109a881610df2565b82525050565b60006109b982610cf2565b6109c38185610cfd565b93506109d3818560208601610e2e565b6109dc81610ef1565b840191505092915050565b60006109f4601383610cfd565b91507f496e73756666696369656e7420546f6b656e73000000000000000000000000006000830152602082019050919050565b6000610a34602483610cfd565b91507f5472616e7366657220616d6f756e74206e6565647320746f20626520706f736960008301527f74697665000000000000000000000000000000000000000000000000000000006020830152604082019050919050565b6000610a9a601783610cfd565b91507f4f776e65722063616e6e6f742062757920746f6b656e730000000000000000006000830152602082019050919050565b6000610ada601183610cfd565b91507f57726f6e6720616d6f756e742073656e740000000000000000000000000000006000830152602082019050919050565b6000610b1a601183610cfd565b91507f4e6f7420656e6f75676820746f6b656e730000000000000000000000000000006000830152602082019050919050565b610b5681610e24565b82525050565b6000602082019050610b71600083018461099f565b92915050565b6000606082019050610b8c600083018661099f565b610b99602083018561099f565b610ba66040830184610b4d565b949350505050565b6000606082019050610bc3600083018661099f565b610bd06020830185610b4d565b610bdd6040830184610b4d565b949350505050565b60006020820190508181036000830152610bff81846109ae565b905092915050565b60006040820190508181036000830152610c2181856109ae565b9050610c306020830184610b4d565b9392505050565b60006020820190508181036000830152610c50816109e7565b9050919050565b60006020820190508181036000830152610c7081610a27565b9050919050565b60006020820190508181036000830152610c9081610a8d565b9050919050565b60006020820190508181036000830152610cb081610acd565b9050919050565b60006020820190508181036000830152610cd081610b0d565b9050919050565b6000602082019050610cec6000830184610b4d565b92915050565b600081519050919050565b600082825260208201905092915050565b6000610d1982610e24565b9150610d2483610e24565b9250827fffffffffffffffffffffffffffffffffffffffffffffffffffffffffffffffff03821115610d5957610d58610e93565b5b828201905092915050565b6000610d6f82610e24565b9150610d7a83610e24565b9250817fffffffffffffffffffffffffffffffffffffffffffffffffffffffffffffffff0483118215151615610db357610db2610e93565b5b828202905092915050565b6000610dc982610e24565b9150610dd483610e24565b925082821015610de757610de6610e93565b5b828203905092915050565b6000610dfd82610e04565b9050919050565b600073ffffffffffffffffffffffffffffffffffffffff82169050919050565b6000819050919050565b60005b83811015610e4c578082015181840152602081019050610e31565b83811115610e5b576000848401525b50505050565b60006002820490506001821680610e7957607f821691505b60208210811415610e8d57610e8c610ec2565b5b50919050565b7f4e487b7100000000000000000000000000000000000000000000000000000000600052601160045260246000fd5b7f4e487b7100000000000000000000000000000000000000000000000000000000600052602260045260246000fd5b6000601f19601f8301169050919050565b610f0b81610df2565b8114610f1657600080fd5b50565b610f2281610e24565b8114610f2d57600080fd5b5056fea2646970667358221220e1db8e0f70e765835f31fa94f4830d47c646034fde5e2b00ff5116a7df86f56564736f6c63430008000033",
  "linkReferences": {},
  "deployedLinkReferences": {}
}